{
  "_format": "hh-sol-artifact-1",
  "contractName": "DecentralizedDiscord",
  "sourceName": "contracts/DecentralizedDiscord.sol",
  "abi": [
    {
      "inputs": [],
      "stateMutability": "nonpayable",
      "type": "constructor"
    },
    {
      "inputs": [
        {
          "internalType": "address",
          "name": "owner",
          "type": "address"
        }
      ],
      "name": "OwnableInvalidOwner",
      "type": "error"
    },
    {
      "inputs": [
        {
          "internalType": "address",
          "name": "account",
          "type": "address"
        }
      ],
      "name": "OwnableUnauthorizedAccount",
      "type": "error"
    },
    {
      "inputs": [],
      "name": "ReentrancyGuardReentrantCall",
      "type": "error"
    },
    {
      "anonymous": false,
      "inputs": [
        {
          "indexed": true,
          "internalType": "uint256",
          "name": "channelId",
          "type": "uint256"
        },
        {
          "indexed": true,
          "internalType": "address",
          "name": "user",
          "type": "address"
        }
      ],
      "name": "ChannelAccessGranted",
      "type": "event"
    },
    {
      "anonymous": false,
      "inputs": [
        {
          "indexed": true,
          "internalType": "uint256",
          "name": "channelId",
          "type": "uint256"
        },
        {
          "indexed": false,
          "internalType": "string",
          "name": "name",
          "type": "string"
        },
        {
          "indexed": true,
          "internalType": "address",
          "name": "creator",
          "type": "address"
        },
        {
          "indexed": false,
          "internalType": "bool",
          "name": "isPrivate",
          "type": "bool"
        },
        {
          "indexed": false,
          "internalType": "uint256",
          "name": "accessPrice",
          "type": "uint256"
        }
      ],
      "name": "ChannelCreated",
      "type": "event"
    },
    {
      "anonymous": false,
      "inputs": [
        {
          "indexed": true,
          "internalType": "uint256",
          "name": "messageId",
          "type": "uint256"
        },
        {
          "indexed": true,
          "internalType": "uint256",
          "name": "channelId",
          "type": "uint256"
        },
        {
          "indexed": true,
          "internalType": "address",
          "name": "sender",
          "type": "address"
        },
        {
          "indexed": false,
          "internalType": "string",
          "name": "content",
          "type": "string"
        },
        {
          "indexed": false,
          "internalType": "uint256",
          "name": "timestamp",
          "type": "uint256"
        }
      ],
      "name": "MessageSent",
      "type": "event"
    },
    {
      "anonymous": false,
      "inputs": [
        {
          "indexed": true,
          "internalType": "address",
          "name": "previousOwner",
          "type": "address"
        },
        {
          "indexed": true,
          "internalType": "address",
          "name": "newOwner",
          "type": "address"
        }
      ],
      "name": "OwnershipTransferred",
      "type": "event"
    },
    {
      "anonymous": false,
      "inputs": [
        {
          "indexed": true,
          "internalType": "uint256",
          "name": "messageId",
          "type": "uint256"
        },
        {
          "indexed": true,
          "internalType": "address",
          "name": "from",
          "type": "address"
        },
        {
          "indexed": true,
          "internalType": "address",
          "name": "to",
          "type": "address"
        },
        {
          "indexed": false,
          "internalType": "uint256",
          "name": "amount",
          "type": "uint256"
        }
      ],
      "name": "TipSent",
      "type": "event"
    },
    {
      "anonymous": false,
      "inputs": [
        {
          "indexed": true,
          "internalType": "address",
          "name": "user",
          "type": "address"
        },
        {
          "indexed": false,
          "internalType": "uint256",
          "name": "amount",
          "type": "uint256"
        }
      ],
      "name": "Withdrawal",
      "type": "event"
    },
    {
      "inputs": [
        {
          "internalType": "uint256",
          "name": "",
          "type": "uint256"
        },
        {
          "internalType": "address",
          "name": "",
          "type": "address"
        }
      ],
      "name": "channelAccess",
      "outputs": [
        {
          "internalType": "bool",
          "name": "",
          "type": "bool"
        }
      ],
      "stateMutability": "view",
      "type": "function"
    },
    {
      "inputs": [
        {
          "internalType": "uint256",
          "name": "",
          "type": "uint256"
        },
        {
          "internalType": "uint256",
          "name": "",
          "type": "uint256"
        }
      ],
      "name": "channelMessages",
      "outputs": [
        {
          "internalType": "uint256",
          "name": "id",
          "type": "uint256"
        },
        {
          "internalType": "uint256",
          "name": "channelId",
          "type": "uint256"
        },
        {
          "internalType": "address",
          "name": "sender",
          "type": "address"
        },
        {
          "internalType": "string",
          "name": "content",
          "type": "string"
        },
        {
          "internalType": "uint256",
          "name": "timestamp",
          "type": "uint256"
        },
        {
          "internalType": "uint256",
          "name": "tipAmount",
          "type": "uint256"
        }
      ],
      "stateMutability": "view",
      "type": "function"
    },
    {
      "inputs": [
        {
          "internalType": "uint256",
          "name": "",
          "type": "uint256"
        }
      ],
      "name": "channels",
      "outputs": [
        {
          "internalType": "uint256",
          "name": "id",
          "type": "uint256"
        },
        {
          "internalType": "string",
          "name": "name",
          "type": "string"
        },
        {
          "internalType": "address",
          "name": "creator",
          "type": "address"
        },
        {
          "internalType": "uint256",
          "name": "createdAt",
          "type": "uint256"
        },
        {
          "internalType": "bool",
          "name": "isPrivate",
          "type": "bool"
        },
        {
          "internalType": "uint256",
          "name": "accessPrice",
          "type": "uint256"
        },
        {
          "internalType": "bool",
          "name": "exists",
          "type": "bool"
        }
      ],
      "stateMutability": "view",
      "type": "function"
    },
    {
      "inputs": [
        {
          "internalType": "string",
          "name": "_name",
          "type": "string"
        },
        {
          "internalType": "bool",
          "name": "_isPrivate",
          "type": "bool"
        },
        {
          "internalType": "uint256",
          "name": "_accessPrice",
          "type": "uint256"
        }
      ],
      "name": "createChannel",
      "outputs": [
        {
          "internalType": "uint256",
          "name": "",
          "type": "uint256"
        }
      ],
      "stateMutability": "nonpayable",
      "type": "function"
    },
    {
      "inputs": [
        {
          "internalType": "uint256",
          "name": "_channelId",
          "type": "uint256"
        }
      ],
      "name": "getChannel",
      "outputs": [
        {
          "components": [
            {
              "internalType": "uint256",
              "name": "id",
              "type": "uint256"
            },
            {
              "internalType": "string",
              "name": "name",
              "type": "string"
            },
            {
              "internalType": "address",
              "name": "creator",
              "type": "address"
            },
            {
              "internalType": "uint256",
              "name": "createdAt",
              "type": "uint256"
            },
            {
              "internalType": "bool",
              "name": "isPrivate",
              "type": "bool"
            },
            {
              "internalType": "uint256",
              "name": "accessPrice",
              "type": "uint256"
            },
            {
              "internalType": "bool",
              "name": "exists",
              "type": "bool"
            }
          ],
          "internalType": "struct DecentralizedDiscord.Channel",
          "name": "",
          "type": "tuple"
        }
      ],
      "stateMutability": "view",
      "type": "function"
    },
    {
      "inputs": [],
      "name": "getChannelCount",
      "outputs": [
        {
          "internalType": "uint256",
          "name": "",
          "type": "uint256"
        }
      ],
      "stateMutability": "view",
      "type": "function"
    },
    {
      "inputs": [
        {
          "internalType": "uint256",
          "name": "_channelId",
          "type": "uint256"
        }
      ],
      "name": "getChannelMessages",
      "outputs": [
        {
          "components": [
            {
              "internalType": "uint256",
              "name": "id",
              "type": "uint256"
            },
            {
              "internalType": "uint256",
              "name": "channelId",
              "type": "uint256"
            },
            {
              "internalType": "address",
              "name": "sender",
              "type": "address"
            },
            {
              "internalType": "string",
              "name": "content",
              "type": "string"
            },
            {
              "internalType": "uint256",
              "name": "timestamp",
              "type": "uint256"
            },
            {
              "internalType": "uint256",
              "name": "tipAmount",
              "type": "uint256"
            }
          ],
          "internalType": "struct DecentralizedDiscord.Message[]",
          "name": "",
          "type": "tuple[]"
        }
      ],
      "stateMutability": "view",
      "type": "function"
    },
    {
      "inputs": [
        {
          "internalType": "address",
          "name": "_user",
          "type": "address"
        }
      ],
      "name": "getUserBalance",
      "outputs": [
        {
          "internalType": "uint256",
          "name": "",
          "type": "uint256"
        }
      ],
      "stateMutability": "view",
      "type": "function"
    },
    {
      "inputs": [
        {
          "internalType": "uint256",
          "name": "_channelId",
          "type": "uint256"
        },
        {
          "internalType": "address",
          "name": "_user",
          "type": "address"
        }
      ],
      "name": "hasChannelAccess",
      "outputs": [
        {
          "internalType": "bool",
          "name": "",
          "type": "bool"
        }
      ],
      "stateMutability": "view",
      "type": "function"
    },
    {
      "inputs": [
        {
          "internalType": "uint256",
          "name": "_channelId",
          "type": "uint256"
        }
      ],
      "name": "joinChannel",
      "outputs": [],
      "stateMutability": "payable",
      "type": "function"
    },
    {
      "inputs": [],
      "name": "owner",
      "outputs": [
        {
          "internalType": "address",
          "name": "",
          "type": "address"
        }
      ],
      "stateMutability": "view",
      "type": "function"
    },
    {
      "inputs": [],
      "name": "renounceOwnership",
      "outputs": [],
      "stateMutability": "nonpayable",
      "type": "function"
    },
    {
      "inputs": [
        {
          "internalType": "uint256",
          "name": "_channelId",
          "type": "uint256"
        },
        {
          "internalType": "string",
          "name": "_content",
          "type": "string"
        }
      ],
      "name": "sendMessage",
      "outputs": [],
      "stateMutability": "nonpayable",
      "type": "function"
    },
    {
      "inputs": [
        {
          "internalType": "uint256",
          "name": "_channelId",
          "type": "uint256"
        },
        {
          "internalType": "uint256",
          "name": "_messageIndex",
          "type": "uint256"
        }
      ],
      "name": "tipMessage",
      "outputs": [],
      "stateMutability": "payable",
      "type": "function"
    },
    {
      "inputs": [
        {
          "internalType": "address",
          "name": "newOwner",
          "type": "address"
        }
      ],
      "name": "transferOwnership",
      "outputs": [],
      "stateMutability": "nonpayable",
      "type": "function"
    },
    {
      "inputs": [
        {
          "internalType": "address",
          "name": "",
          "type": "address"
        }
      ],
      "name": "userBalances",
      "outputs": [
        {
          "internalType": "uint256",
          "name": "",
          "type": "uint256"
        }
      ],
      "stateMutability": "view",
      "type": "function"
    },
    {
      "inputs": [],
      "name": "withdraw",
      "outputs": [],
      "stateMutability": "nonpayable",
      "type": "function"
    }
  ],
  "bytecode": "0x608060405234801561001057600080fd5b50338061003757604051631e4fbdf760e01b81526000600482015260240160405180910390fd5b61004081610054565b5060018055600060028190556003556100a4565b600080546001600160a01b038381166001600160a01b0319831681178455604051919092169283917f8be0079c531659141344cd1fd0a4f28419497f9722a3daafe3b4186f6b6457e09190a35050565b611b14806100b36000396000f3fe6080604052600436106100fe5760003560e01c8063715018a611610095578063ce1f3cd011610064578063ce1f3cd0146102a3578063d4becec2146102d3578063dad371a21461030e578063e5949b5d1461033b578063f2fde38b1461036e57600080fd5b8063715018a61461021457806378d987d9146102295780638da5cb5b1461025b578063aae8b5921461028357600080fd5b80633cab299e116100d15780633cab299e146101965780633ccfd60b146101b657806347734892146101cb57806354ec89ee1461020157600080fd5b80630eb8fe7a1461010357806310df54a01461012757806326224c64146101545780632819cc0c14610181575b600080fd5b34801561010f57600080fd5b506002545b6040519081526020015b60405180910390f35b34801561013357600080fd5b506101476101423660046114e5565b61038e565b60405161011e9190611544565b34801561016057600080fd5b5061011461016f3660046115d1565b60076020526000908152604090205481565b61019461018f3660046114e5565b61051d565b005b3480156101a257600080fd5b506101146101b1366004611696565b610810565b3480156101c257600080fd5b506101946109ff565b3480156101d757600080fd5b506101146101e63660046115d1565b6001600160a01b031660009081526007602052604090205490565b61019461020f3660046116f5565b610b3a565b34801561022057600080fd5b50610194610d44565b34801561023557600080fd5b506102496102443660046116f5565b610d56565b60405161011e96959493929190611717565b34801561026757600080fd5b506000546040516001600160a01b03909116815260200161011e565b34801561028f57600080fd5b5061019461029e366004611759565b610e3d565b3480156102af57600080fd5b506102c36102be3660046117a0565b61112f565b604051901515815260200161011e565b3480156102df57600080fd5b506102c36102ee3660046117a0565b600660209081526000928352604080842090915290825290205460ff1681565b34801561031a57600080fd5b5061032e6103293660046114e5565b61115c565b60405161011e91906117cc565b34801561034757600080fd5b5061035b6103563660046114e5565b61132c565b60405161011e9796959493929190611878565b34801561037a57600080fd5b506101946103893660046115d1565b611400565b6103db6040518060e00160405280600081526020016060815260200160006001600160a01b0316815260200160008152602001600015158152602001600081526020016000151581525090565b60008281526004602052604090206006015460ff166104155760405162461bcd60e51b815260040161040c906118c6565b60405180910390fd5b600460008381526020019081526020016000206040518060e00160405290816000820154815260200160018201805461044d906118f6565b80601f0160208091040260200160405190810160405280929190818152602001828054610479906118f6565b80156104c65780601f1061049b576101008083540402835291602001916104c6565b820191906000526020600020905b8154815290600101906020018083116104a957829003601f168201915b505050918352505060028201546001600160a01b0316602082015260038201546040820152600482015460ff9081161515606083015260058301546080830152600690920154909116151560a09091015292915050565b6000600460008381526020019081526020016000206040518060e001604052908160008201548152602001600182018054610557906118f6565b80601f0160208091040260200160405190810160405280929190818152602001828054610583906118f6565b80156105d05780601f106105a5576101008083540402835291602001916105d0565b820191906000526020600020905b8154815290600101906020018083116105b357829003601f168201915b505050918352505060028201546001600160a01b0316602082015260038201546040820152600482015460ff9081161515606083015260058301546080830152600690920154909116151560a09091015260c08101519091506106455760405162461bcd60e51b815260040161040c906118c6565b600082815260066020908152604080832033845290915290205460ff16156106af5760405162461bcd60e51b815260206004820152601e60248201527f416c726561647920686176652061636365737320746f206368616e6e656c0000604482015260640161040c565b806080015180156106c4575060008160a00151115b15610764578060a0015134101561072d5760405162461bcd60e51b815260206004820152602760248201527f496e73756666696369656e74207061796d656e7420666f72206368616e6e656c6044820152662061636365737360c81b606482015260840161040c565b6040808201516001600160a01b0316600090815260076020529081208054349290610759908490611946565b909155506107be9050565b34156107be5760405162461bcd60e51b8152602060048201526024808201527f4e6f207061796d656e7420726571756972656420666f722074686973206368616044820152631b9b995b60e21b606482015260840161040c565b6000828152600660209081526040808320338085529252808320805460ff1916600117905551909184917f158fe0fe22cb3bb26f76cd98c2648091b9943987440a81c45846cf5a05a1468e9190a35050565b6000808451116108625760405162461bcd60e51b815260206004820152601c60248201527f4368616e6e656c206e616d652063616e6e6f7420626520656d70747900000000604482015260640161040c565b826108b55781156108b55760405162461bcd60e51b815260206004820152601c60248201527f5075626c6963206368616e6e656c73206d757374206265206672656500000000604482015260640161040c565b600280549060006108c583611959565b90915550506002546040805160e08101825282815260208082018881523383850152426060840152871515608084015260a08301879052600160c084018190526000868152600490935293909120825181559051919290919082019061092b90826119c1565b506040828101516002830180546001600160a01b039092166001600160a01b031990921691909117905560608301516003830155608083015160048301805491151560ff1992831617905560a0840151600584015560c09093015160069283018054911515918516919091179055600084815260209283528181203380835293528190208054909316600117909255905182907f0b33711820bf67c135f44105dfb9d2e2f88860cc212c71ceeada96f43a31fa6b906109ef90899089908990611a81565b60405180910390a3949350505050565b610a0761143e565b3360009081526007602052604090205480610a5d5760405162461bcd60e51b81526020600482015260166024820152754e6f2062616c616e636520746f20776974686472617760501b604482015260640161040c565b336000818152600760205260408082208290555190919083908381818185875af1925050503d8060008114610aae576040519150601f19603f3d011682016040523d82523d6000602084013e610ab3565b606091505b5050905080610af85760405162461bcd60e51b815260206004820152601160248201527015da5d1a191c985dd85b0819985a5b1959607a1b604482015260640161040c565b60405182815233907f7fcf532c15f0a6db0bd6d0e038bea71d30d808c7d98cb3bf7268a95bf5081b659060200160405180910390a25050610b3860018055565b565b60003411610b945760405162461bcd60e51b815260206004820152602160248201527f54697020616d6f756e74206d7573742062652067726561746572207468616e206044820152600360fc1b606482015260840161040c565b60008281526004602052604090206006015460ff16610bc55760405162461bcd60e51b815260040161040c906118c6565b6000828152600560205260409020548110610c1b5760405162461bcd60e51b815260206004820152601660248201527513595cdcd859d948191bd95cc81b9bdd08195e1a5cdd60521b604482015260640161040c565b6000828152600560205260408120805483908110610c3b57610c3b611aa6565b600091825260209091206006909102016002810154909150336001600160a01b0390911603610cac5760405162461bcd60e51b815260206004820152601b60248201527f43616e6e6f742074697020796f7572206f776e206d6573736167650000000000604482015260640161040c565b34816005016000828254610cc09190611946565b909155505060028101546001600160a01b031660009081526007602052604081208054349290610cf1908490611946565b9091555050600281015481546040513481526001600160a01b03909216913391907f471bff7634a7f1379732c73e55b97bcd606d0c2e2689abd6e0a729391ef3ba1b9060200160405180910390a4505050565b610d4c611468565b610b386000611495565b60056020528160005260406000208181548110610d7257600080fd5b600091825260209091206006909102018054600182015460028301546003840180549396509194506001600160a01b03169291610dae906118f6565b80601f0160208091040260200160405190810160405280929190818152602001828054610dda906118f6565b8015610e275780601f10610dfc57610100808354040283529160200191610e27565b820191906000526020600020905b815481529060010190602001808311610e0a57829003601f168201915b5050505050908060040154908060050154905086565b6000600460008481526020019081526020016000206040518060e001604052908160008201548152602001600182018054610e77906118f6565b80601f0160208091040260200160405190810160405280929190818152602001828054610ea3906118f6565b8015610ef05780601f10610ec557610100808354040283529160200191610ef0565b820191906000526020600020905b815481529060010190602001808311610ed357829003601f168201915b505050918352505060028201546001600160a01b0316602082015260038201546040820152600482015460ff9081161515606083015260058301546080830152600690920154909116151560a09091015260c0810151909150610f655760405162461bcd60e51b815260040161040c906118c6565b600083815260066020908152604080832033845290915290205460ff16610fca5760405162461bcd60e51b8152602060048201526019602482015278139bc81858d8d95cdcc81d1bc81d1a1a5cc818da185b9b995b603a1b604482015260640161040c565b600082511161101b5760405162461bcd60e51b815260206004820152601760248201527f4d6573736167652063616e6e6f7420626520656d707479000000000000000000604482015260640161040c565b6003805490600061102b83611959565b90915550506040805160c08101825260038054825260208083018781523384860190815260608501888152426080870152600060a087018190528a81526005855296872080546001808201835591895294909720865160069095020193845591519583019590955593516002820180546001600160a01b0319166001600160a01b0390921691909117905592519192839290918201906110cb90826119c1565b506080820151816004015560a082015181600501555050336001600160a01b0316846003547f32d907d723f55216c6eb6ce8af70508b18c6bceccfca6fc9670d2fa0fc75876e8642604051611121929190611abc565b60405180910390a450505050565b60008281526006602090815260408083206001600160a01b038516845290915290205460ff165b92915050565b60008181526004602052604090206006015460609060ff166111905760405162461bcd60e51b815260040161040c906118c6565b600082815260066020908152604080832033845290915290205460ff166111f55760405162461bcd60e51b8152602060048201526019602482015278139bc81858d8d95cdcc81d1bc81d1a1a5cc818da185b9b995b603a1b604482015260640161040c565b600082815260056020908152604080832080548251818502810185019093528083529193909284015b828210156113215760008481526020908190206040805160c081018252600686029092018054835260018101549383019390935260028301546001600160a01b03169082015260038201805491929160608401919061127c906118f6565b80601f01602080910402602001604051908101604052809291908181526020018280546112a8906118f6565b80156112f55780601f106112ca576101008083540402835291602001916112f5565b820191906000526020600020905b8154815290600101906020018083116112d857829003601f168201915b50505050508152602001600482015481526020016005820154815250508152602001906001019061121e565b505050509050919050565b6004602052600090815260409020805460018201805491929161134e906118f6565b80601f016020809104026020016040519081016040528092919081815260200182805461137a906118f6565b80156113c75780601f1061139c576101008083540402835291602001916113c7565b820191906000526020600020905b8154815290600101906020018083116113aa57829003601f168201915b505050600284015460038501546004860154600587015460069097015495966001600160a01b039093169591945060ff90811693501687565b611408611468565b6001600160a01b03811661143257604051631e4fbdf760e01b81526000600482015260240161040c565b61143b81611495565b50565b60026001540361146157604051633ee5aeb560e01b815260040160405180910390fd5b6002600155565b6000546001600160a01b03163314610b385760405163118cdaa760e01b815233600482015260240161040c565b600080546001600160a01b038381166001600160a01b0319831681178455604051919092169283917f8be0079c531659141344cd1fd0a4f28419497f9722a3daafe3b4186f6b6457e09190a35050565b6000602082840312156114f757600080fd5b5035919050565b6000815180845260005b8181101561152457602081850181015186830182015201611508565b506000602082860101526020601f19601f83011685010191505092915050565b60208152815160208201526000602083015160e0604084015261156b6101008401826114fe565b905060018060a01b036040850151166060840152606084015160808401526080840151151560a084015260a084015160c084015260c0840151151560e08401528091505092915050565b80356001600160a01b03811681146115cc57600080fd5b919050565b6000602082840312156115e357600080fd5b6115ec826115b5565b9392505050565b634e487b7160e01b600052604160045260246000fd5b600082601f83011261161a57600080fd5b813567ffffffffffffffff80821115611635576116356115f3565b604051601f8301601f19908116603f0116810190828211818310171561165d5761165d6115f3565b8160405283815286602085880101111561167657600080fd5b836020870160208301376000602085830101528094505050505092915050565b6000806000606084860312156116ab57600080fd5b833567ffffffffffffffff8111156116c257600080fd5b6116ce86828701611609565b935050602084013580151581146116e457600080fd5b929592945050506040919091013590565b6000806040838503121561170857600080fd5b50508035926020909101359150565b86815285602082015260018060a01b038516604082015260c06060820152600061174460c08301866114fe565b60808301949094525060a00152949350505050565b6000806040838503121561176c57600080fd5b82359150602083013567ffffffffffffffff81111561178a57600080fd5b61179685828601611609565b9150509250929050565b600080604083850312156117b357600080fd5b823591506117c3602084016115b5565b90509250929050565b60006020808301818452808551808352604092508286019150828160051b87010184880160005b8381101561186a57888303603f190185528151805184528781015188850152868101516001600160a01b03168785015260608082015160c0828701819052919061183f838801826114fe565b6080858101519089015260a094850151949097019390935250505093860193908601906001016117f3565b509098975050505050505050565b87815260e06020820152600061189160e08301896114fe565b6001600160a01b03979097166040830152506060810194909452911515608084015260a0830152151560c09091015292915050565b60208082526016908201527510da185b9b995b08191bd95cc81b9bdd08195e1a5cdd60521b604082015260600190565b600181811c9082168061190a57607f821691505b60208210810361192a57634e487b7160e01b600052602260045260246000fd5b50919050565b634e487b7160e01b600052601160045260246000fd5b8082018082111561115657611156611930565b60006001820161196b5761196b611930565b5060010190565b601f8211156119bc57600081815260208120601f850160051c810160208610156119995750805b601f850160051c820191505b818110156119b8578281556001016119a5565b5050505b505050565b815167ffffffffffffffff8111156119db576119db6115f3565b6119ef816119e984546118f6565b84611972565b602080601f831160018114611a245760008415611a0c5750858301515b600019600386901b1c1916600185901b1785556119b8565b600085815260208120601f198616915b82811015611a5357888601518255948401946001909101908401611a34565b5085821015611a715787850151600019600388901b60f8161c191681555b5050505050600190811b01905550565b606081526000611a9460608301866114fe565b93151560208301525060400152919050565b634e487b7160e01b600052603260045260246000fd5b604081526000611acf60408301856114fe565b9050826020830152939250505056fea2646970667358221220f1d3017ca94e00e0e5ba808cf290e569f5b39774064256afb91085fedf3192c464736f6c63430008140033",
  "linkReferences": {},
  "deployedLinkReferences": {}
}