{
  "_format": "hh-sol-artifact-1",
  "contractName": "DiscordNFT",
  "sourceName": "contracts/DiscordNFT.sol",
  "abi": [
    {
      "inputs": [
        {
          "internalType": "uint256",
          "name": "_mintPrice",
          "type": "uint256"
        }
      ],
      "stateMutability": "nonpayable",
      "type": "constructor"
    },
    {
      "inputs": [
        {
          "internalType": "address",
          "name": "sender",
          "type": "address"
        },
        {
          "internalType": "uint256",
          "name": "tokenId",
          "type": "uint256"
        },
        {
          "internalType": "address",
          "name": "owner",
          "type": "address"
        }
      ],
      "name": "ERC721IncorrectOwner",
      "type": "error"
    },
    {
      "inputs": [
        {
          "internalType": "address",
          "name": "operator",
          "type": "address"
        },
        {
          "internalType": "uint256",
          "name": "tokenId",
          "type": "uint256"
        }
      ],
      "name": "ERC721InsufficientApproval",
      "type": "error"
    },
    {
      "inputs": [
        {
          "internalType": "address",
          "name": "approver",
          "type": "address"
        }
      ],
      "name": "ERC721InvalidApprover",
      "type": "error"
    },
    {
      "inputs": [
        {
          "internalType": "address",
          "name": "operator",
          "type": "address"
        }
      ],
      "name": "ERC721InvalidOperator",
      "type": "error"
    },
    {
      "inputs": [
        {
          "internalType": "address",
          "name": "owner",
          "type": "address"
        }
      ],
      "name": "ERC721InvalidOwner",
      "type": "error"
    },
    {
      "inputs": [
        {
          "internalType": "address",
          "name": "receiver",
          "type": "address"
        }
      ],
      "name": "ERC721InvalidReceiver",
      "type": "error"
    },
    {
      "inputs": [
        {
          "internalType": "address",
          "name": "sender",
          "type": "address"
        }
      ],
      "name": "ERC721InvalidSender",
      "type": "error"
    },
    {
      "inputs": [
        {
          "internalType": "uint256",
          "name": "tokenId",
          "type": "uint256"
        }
      ],
      "name": "ERC721NonexistentToken",
      "type": "error"
    },
    {
      "inputs": [
        {
          "internalType": "address",
          "name": "owner",
          "type": "address"
        }
      ],
      "name": "OwnableInvalidOwner",
      "type": "error"
    },
    {
      "inputs": [
        {
          "internalType": "address",
          "name": "account",
          "type": "address"
        }
      ],
      "name": "OwnableUnauthorizedAccount",
      "type": "error"
    },
    {
      "anonymous": false,
      "inputs": [
        {
          "indexed": true,
          "internalType": "address",
          "name": "owner",
          "type": "address"
        },
        {
          "indexed": true,
          "internalType": "address",
          "name": "approved",
          "type": "address"
        },
        {
          "indexed": true,
          "internalType": "uint256",
          "name": "tokenId",
          "type": "uint256"
        }
      ],
      "name": "Approval",
      "type": "event"
    },
    {
      "anonymous": false,
      "inputs": [
        {
          "indexed": true,
          "internalType": "address",
          "name": "owner",
          "type": "address"
        },
        {
          "indexed": true,
          "internalType": "address",
          "name": "operator",
          "type": "address"
        },
        {
          "indexed": false,
          "internalType": "bool",
          "name": "approved",
          "type": "bool"
        }
      ],
      "name": "ApprovalForAll",
      "type": "event"
    },
    {
      "anonymous": false,
      "inputs": [
        {
          "indexed": false,
          "internalType": "uint256",
          "name": "_fromTokenId",
          "type": "uint256"
        },
        {
          "indexed": false,
          "internalType": "uint256",
          "name": "_toTokenId",
          "type": "uint256"
        }
      ],
      "name": "BatchMetadataUpdate",
      "type": "event"
    },
    {
      "anonymous": false,
      "inputs": [
        {
          "indexed": false,
          "internalType": "uint256",
          "name": "_tokenId",
          "type": "uint256"
        }
      ],
      "name": "MetadataUpdate",
      "type": "event"
    },
    {
      "anonymous": false,
      "inputs": [
        {
          "indexed": false,
          "internalType": "uint256",
          "name": "newPrice",
          "type": "uint256"
        }
      ],
      "name": "MintPriceUpdated",
      "type": "event"
    },
    {
      "anonymous": false,
      "inputs": [
        {
          "indexed": true,
          "internalType": "address",
          "name": "to",
          "type": "address"
        },
        {
          "indexed": true,
          "internalType": "uint256",
          "name": "tokenId",
          "type": "uint256"
        },
        {
          "indexed": false,
          "internalType": "enum DiscordNFT.MembershipTier",
          "name": "tier",
          "type": "uint8"
        }
      ],
      "name": "NFTMinted",
      "type": "event"
    },
    {
      "anonymous": false,
      "inputs": [
        {
          "indexed": true,
          "internalType": "address",
          "name": "previousOwner",
          "type": "address"
        },
        {
          "indexed": true,
          "internalType": "address",
          "name": "newOwner",
          "type": "address"
        }
      ],
      "name": "OwnershipTransferred",
      "type": "event"
    },
    {
      "anonymous": false,
      "inputs": [
        {
          "indexed": false,
          "internalType": "enum DiscordNFT.MembershipTier",
          "name": "tier",
          "type": "uint8"
        },
        {
          "indexed": false,
          "internalType": "uint256",
          "name": "price",
          "type": "uint256"
        }
      ],
      "name": "TierPriceUpdated",
      "type": "event"
    },
    {
      "anonymous": false,
      "inputs": [
        {
          "indexed": true,
          "internalType": "address",
          "name": "from",
          "type": "address"
        },
        {
          "indexed": true,
          "internalType": "address",
          "name": "to",
          "type": "address"
        },
        {
          "indexed": true,
          "internalType": "uint256",
          "name": "tokenId",
          "type": "uint256"
        }
      ],
      "name": "Transfer",
      "type": "event"
    },
    {
      "inputs": [
        {
          "internalType": "address",
          "name": "to",
          "type": "address"
        },
        {
          "internalType": "uint256",
          "name": "tokenId",
          "type": "uint256"
        }
      ],
      "name": "approve",
      "outputs": [],
      "stateMutability": "nonpayable",
      "type": "function"
    },
    {
      "inputs": [
        {
          "internalType": "address",
          "name": "owner",
          "type": "address"
        }
      ],
      "name": "balanceOf",
      "outputs": [
        {
          "internalType": "uint256",
          "name": "",
          "type": "uint256"
        }
      ],
      "stateMutability": "view",
      "type": "function"
    },
    {
      "inputs": [
        {
          "internalType": "uint256",
          "name": "tokenId",
          "type": "uint256"
        }
      ],
      "name": "getApproved",
      "outputs": [
        {
          "internalType": "address",
          "name": "",
          "type": "address"
        }
      ],
      "stateMutability": "view",
      "type": "function"
    },
    {
      "inputs": [
        {
          "internalType": "uint256",
          "name": "tokenId",
          "type": "uint256"
        }
      ],
      "name": "getTokenMetadata",
      "outputs": [
        {
          "components": [
            {
              "internalType": "enum DiscordNFT.MembershipTier",
              "name": "tier",
              "type": "uint8"
            },
            {
              "internalType": "uint256",
              "name": "mintedAt",
              "type": "uint256"
            },
            {
              "internalType": "string",
              "name": "username",
              "type": "string"
            }
          ],
          "internalType": "struct DiscordNFT.NFTMetadata",
          "name": "",
          "type": "tuple"
        }
      ],
      "stateMutability": "view",
      "type": "function"
    },
    {
      "inputs": [
        {
          "internalType": "address",
          "name": "_user",
          "type": "address"
        }
      ],
      "name": "getUserTier",
      "outputs": [
        {
          "internalType": "enum DiscordNFT.MembershipTier",
          "name": "",
          "type": "uint8"
        }
      ],
      "stateMutability": "view",
      "type": "function"
    },
    {
      "inputs": [
        {
          "internalType": "address",
          "name": "",
          "type": "address"
        }
      ],
      "name": "hasMinted",
      "outputs": [
        {
          "internalType": "bool",
          "name": "",
          "type": "bool"
        }
      ],
      "stateMutability": "view",
      "type": "function"
    },
    {
      "inputs": [
        {
          "internalType": "address",
          "name": "_user",
          "type": "address"
        }
      ],
      "name": "hasPremiumAccess",
      "outputs": [
        {
          "internalType": "bool",
          "name": "",
          "type": "bool"
        }
      ],
      "stateMutability": "view",
      "type": "function"
    },
    {
      "inputs": [
        {
          "internalType": "address",
          "name": "_user",
          "type": "address"
        }
      ],
      "name": "hasVIPAccess",
      "outputs": [
        {
          "internalType": "bool",
          "name": "",
          "type": "bool"
        }
      ],
      "stateMutability": "view",
      "type": "function"
    },
    {
      "inputs": [
        {
          "internalType": "address",
          "name": "owner",
          "type": "address"
        },
        {
          "internalType": "address",
          "name": "operator",
          "type": "address"
        }
      ],
      "name": "isApprovedForAll",
      "outputs": [
        {
          "internalType": "bool",
          "name": "",
          "type": "bool"
        }
      ],
      "stateMutability": "view",
      "type": "function"
    },
    {
      "inputs": [
        {
          "internalType": "enum DiscordNFT.MembershipTier",
          "name": "_tier",
          "type": "uint8"
        },
        {
          "internalType": "string",
          "name": "_username",
          "type": "string"
        }
      ],
      "name": "mint",
      "outputs": [],
      "stateMutability": "payable",
      "type": "function"
    },
    {
      "inputs": [],
      "name": "mintPrice",
      "outputs": [
        {
          "internalType": "uint256",
          "name": "",
          "type": "uint256"
        }
      ],
      "stateMutability": "view",
      "type": "function"
    },
    {
      "inputs": [],
      "name": "name",
      "outputs": [
        {
          "internalType": "string",
          "name": "",
          "type": "string"
        }
      ],
      "stateMutability": "view",
      "type": "function"
    },
    {
      "inputs": [],
      "name": "owner",
      "outputs": [
        {
          "internalType": "address",
          "name": "",
          "type": "address"
        }
      ],
      "stateMutability": "view",
      "type": "function"
    },
    {
      "inputs": [
        {
          "internalType": "uint256",
          "name": "tokenId",
          "type": "uint256"
        }
      ],
      "name": "ownerOf",
      "outputs": [
        {
          "internalType": "address",
          "name": "",
          "type": "address"
        }
      ],
      "stateMutability": "view",
      "type": "function"
    },
    {
      "inputs": [],
      "name": "renounceOwnership",
      "outputs": [],
      "stateMutability": "nonpayable",
      "type": "function"
    },
    {
      "inputs": [
        {
          "internalType": "address",
          "name": "from",
          "type": "address"
        },
        {
          "internalType": "address",
          "name": "to",
          "type": "address"
        },
        {
          "internalType": "uint256",
          "name": "tokenId",
          "type": "uint256"
        }
      ],
      "name": "safeTransferFrom",
      "outputs": [],
      "stateMutability": "nonpayable",
      "type": "function"
    },
    {
      "inputs": [
        {
          "internalType": "address",
          "name": "from",
          "type": "address"
        },
        {
          "internalType": "address",
          "name": "to",
          "type": "address"
        },
        {
          "internalType": "uint256",
          "name": "tokenId",
          "type": "uint256"
        },
        {
          "internalType": "bytes",
          "name": "data",
          "type": "bytes"
        }
      ],
      "name": "safeTransferFrom",
      "outputs": [],
      "stateMutability": "nonpayable",
      "type": "function"
    },
    {
      "inputs": [
        {
          "internalType": "address",
          "name": "operator",
          "type": "address"
        },
        {
          "internalType": "bool",
          "name": "approved",
          "type": "bool"
        }
      ],
      "name": "setApprovalForAll",
      "outputs": [],
      "stateMutability": "nonpayable",
      "type": "function"
    },
    {
      "inputs": [
        {
          "internalType": "string",
          "name": "baseURI",
          "type": "string"
        }
      ],
      "name": "setBaseURI",
      "outputs": [],
      "stateMutability": "nonpayable",
      "type": "function"
    },
    {
      "inputs": [
        {
          "internalType": "enum DiscordNFT.MembershipTier",
          "name": "_tier",
          "type": "uint8"
        },
        {
          "internalType": "uint256",
          "name": "_price",
          "type": "uint256"
        }
      ],
      "name": "setTierPrice",
      "outputs": [],
      "stateMutability": "nonpayable",
      "type": "function"
    },
    {
      "inputs": [
        {
          "internalType": "bytes4",
          "name": "interfaceId",
          "type": "bytes4"
        }
      ],
      "name": "supportsInterface",
      "outputs": [
        {
          "internalType": "bool",
          "name": "",
          "type": "bool"
        }
      ],
      "stateMutability": "view",
      "type": "function"
    },
    {
      "inputs": [],
      "name": "symbol",
      "outputs": [
        {
          "internalType": "string",
          "name": "",
          "type": "string"
        }
      ],
      "stateMutability": "view",
      "type": "function"
    },
    {
      "inputs": [
        {
          "internalType": "enum DiscordNFT.MembershipTier",
          "name": "",
          "type": "uint8"
        }
      ],
      "name": "tierPrices",
      "outputs": [
        {
          "internalType": "uint256",
          "name": "",
          "type": "uint256"
        }
      ],
      "stateMutability": "view",
      "type": "function"
    },
    {
      "inputs": [
        {
          "internalType": "uint256",
          "name": "",
          "type": "uint256"
        }
      ],
      "name": "tokenMetadata",
      "outputs": [
        {
          "internalType": "enum DiscordNFT.MembershipTier",
          "name": "tier",
          "type": "uint8"
        },
        {
          "internalType": "uint256",
          "name": "mintedAt",
          "type": "uint256"
        },
        {
          "internalType": "string",
          "name": "username",
          "type": "string"
        }
      ],
      "stateMutability": "view",
      "type": "function"
    },
    {
      "inputs": [
        {
          "internalType": "uint256",
          "name": "tokenId",
          "type": "uint256"
        }
      ],
      "name": "tokenURI",
      "outputs": [
        {
          "internalType": "string",
          "name": "",
          "type": "string"
        }
      ],
      "stateMutability": "view",
      "type": "function"
    },
    {
      "inputs": [
        {
          "internalType": "address",
          "name": "from",
          "type": "address"
        },
        {
          "internalType": "address",
          "name": "to",
          "type": "address"
        },
        {
          "internalType": "uint256",
          "name": "tokenId",
          "type": "uint256"
        }
      ],
      "name": "transferFrom",
      "outputs": [],
      "stateMutability": "nonpayable",
      "type": "function"
    },
    {
      "inputs": [
        {
          "internalType": "address",
          "name": "newOwner",
          "type": "address"
        }
      ],
      "name": "transferOwnership",
      "outputs": [],
      "stateMutability": "nonpayable",
      "type": "function"
    },
    {
      "inputs": [],
      "name": "withdraw",
      "outputs": [],
      "stateMutability": "nonpayable",
      "type": "function"
    }
  ],
  "bytecode": "0x60806040523480156200001157600080fd5b50604051620024fb380380620024fb8339810160408190526200003491620001cf565b336040518060400160405280601681526020017f446973636f7264204d656d62657273686970204e465400000000000000000000815250604051806040016040528060048152602001631113919560e21b81525081600090816200009991906200028e565b506001620000a882826200028e565b5050506001600160a01b038116620000da57604051631e4fbdf760e01b81526000600482015260240160405180910390fd5b620000e5816200017d565b506009556001600855600d602052662386f26fc100007f81955a0a11e65eac625c29e8882660bae4e165a75d72780094acae8ece9a29ee5566b1a2bc2ec500007ffd54ff1ed53f34a900b24c5ba64f85761163b5d82d98a47b9bd80e45466993c555600260005267016345785d8a00007f10a81eed9d63d16face5e76357905348e6253d3394086026bb2bf2145d7cc249556200035a565b600780546001600160a01b038381166001600160a01b0319831681179093556040519116919082907f8be0079c531659141344cd1fd0a4f28419497f9722a3daafe3b4186f6b6457e090600090a35050565b600060208284031215620001e257600080fd5b5051919050565b634e487b7160e01b600052604160045260246000fd5b600181811c908216806200021457607f821691505b6020821081036200023557634e487b7160e01b600052602260045260246000fd5b50919050565b601f8211156200028957600081815260208120601f850160051c81016020861015620002645750805b601f850160051c820191505b81811015620002855782815560010162000270565b5050505b505050565b81516001600160401b03811115620002aa57620002aa620001e9565b620002c281620002bb8454620001ff565b846200023b565b602080601f831160018114620002fa5760008415620002e15750858301515b600019600386901b1c1916600185901b17855562000285565b600085815260208120601f198616915b828110156200032b578886015182559484019460019091019084016200030a565b50858210156200034a5787850151600019600388901b60f8161c191681555b5050505050600190811b01905550565b612191806200036a6000396000f3fe6080604052600436106101b75760003560e01c80636817c76c116100ec578063a67e12a81161008a578063c87b56dd11610064578063c87b56dd146104fa578063e4d2620e1461051a578063e985e9c514610547578063f2fde38b1461056757600080fd5b8063a67e12a81461048d578063b4fad6f8146104ad578063b88d4fde146104da57600080fd5b8063715018a6116100c6578063715018a6146104255780638da5cb5b1461043a57806395d89b4114610458578063a22cb4651461046d57600080fd5b80636817c76c146103b25780636914db60146103d657806370a082311461040557600080fd5b80633ccfd60b116101595780634a5c6f8c116101335780634a5c6f8c1461032557806355f804b31461034557806360316801146103655780636352211e1461039257600080fd5b80633ccfd60b146102dd5780633d04979d146102f257806342842e0e1461030557600080fd5b8063095ea7b311610195578063095ea7b31461024b57806323b872dd1461026d57806333f3156e1461028d57806338e21cce146102ad57600080fd5b806301ffc9a7146101bc57806306fdde03146101f1578063081812fc14610213575b600080fd5b3480156101c857600080fd5b506101dc6101d7366004611a3d565b610587565b60405190151581526020015b60405180910390f35b3480156101fd57600080fd5b50610206610598565b6040516101e89190611ab1565b34801561021f57600080fd5b5061023361022e366004611ac4565b61062a565b6040516001600160a01b0390911681526020016101e8565b34801561025757600080fd5b5061026b610266366004611af9565b610653565b005b34801561027957600080fd5b5061026b610288366004611b23565b610662565b34801561029957600080fd5b506101dc6102a8366004611b5f565b6106f2565b3480156102b957600080fd5b506101dc6102c8366004611b5f565b600c6020526000908152604090205460ff1681565b3480156102e957600080fd5b5061026b61078f565b61026b610300366004611c35565b610886565b34801561031157600080fd5b5061026b610320366004611b23565b610ac1565b34801561033157600080fd5b5061026b610340366004611c83565b610ae1565b34801561035157600080fd5b5061026b610360366004611c9f565b610b60565b34801561037157600080fd5b50610385610380366004611ac4565b610b74565b6040516101e89190611d0c565b34801561039e57600080fd5b506102336103ad366004611ac4565b610ccf565b3480156103be57600080fd5b506103c860095481565b6040519081526020016101e8565b3480156103e257600080fd5b506103f66103f1366004611ac4565b610cda565b6040516101e893929190611d42565b34801561041157600080fd5b506103c8610420366004611b5f565b610d89565b34801561043157600080fd5b5061026b610dd1565b34801561044657600080fd5b506007546001600160a01b0316610233565b34801561046457600080fd5b50610206610de5565b34801561047957600080fd5b5061026b610488366004611d71565b610df4565b34801561049957600080fd5b506101dc6104a8366004611b5f565b610dff565b3480156104b957600080fd5b506103c86104c8366004611dad565b600d6020526000908152604090205481565b3480156104e657600080fd5b5061026b6104f5366004611dc8565b610eb3565b34801561050657600080fd5b50610206610515366004611ac4565b610ecb565b34801561052657600080fd5b5061053a610535366004611b5f565b6110ea565b6040516101e89190611e44565b34801561055357600080fd5b506101dc610562366004611e52565b6111df565b34801561057357600080fd5b5061026b610582366004611b5f565b61120d565b60006105928261124b565b92915050565b6060600080546105a790611e85565b80601f01602080910402602001604051908101604052809291908181526020018280546105d390611e85565b80156106205780601f106105f557610100808354040283529160200191610620565b820191906000526020600020905b81548152906001019060200180831161060357829003601f168201915b5050505050905090565b600061063582611270565b506000828152600460205260409020546001600160a01b0316610592565b61065e8282336112a8565b5050565b6001600160a01b03821661069157604051633250574960e11b8152600060048201526024015b60405180910390fd5b600061069e8383336112b5565b9050836001600160a01b0316816001600160a01b0316146106ec576040516364283d7b60e01b81526001600160a01b0380861660048301526024820184905282166044820152606401610688565b50505050565b6000806106fe83610d89565b9050806000036107115750600092915050565b60015b60085481101561078557836001600160a01b0316610731826113a9565b6001600160a01b0316036107735760026000828152600b602052604090205460ff16600281111561076457610764611cd4565b03610773575060019392505050565b8061077d81611ebf565b915050610714565b5060009392505050565b6107976113c4565b47806107de5760405162461bcd60e51b81526020600482015260166024820152754e6f2062616c616e636520746f20776974686472617760501b6044820152606401610688565b60006107f26007546001600160a01b031690565b6001600160a01b03168260405160006040518083038185875af1925050503d806000811461083c576040519150601f19603f3d011682016040523d82523d6000602084013e610841565b606091505b505090508061065e5760405162461bcd60e51b815260206004820152601160248201527015da5d1a191c985dd85b0819985a5b1959607a1b6044820152606401610688565b336000908152600c602052604090205460ff16156108e65760405162461bcd60e51b815260206004820152601f60248201527f416c7265616479206d696e7465642061206d656d62657273686970204e4654006044820152606401610688565b60008151116109375760405162461bcd60e51b815260206004820152601860248201527f557365726e616d652063616e6e6f7420626520656d70747900000000000000006044820152606401610688565b600d600083600281111561094d5761094d611cd4565b600281111561095e5761095e611cd4565b8152602001908152602001600020543410156109c75760405162461bcd60e51b815260206004820152602260248201527f496e73756666696369656e74207061796d656e7420666f72207468697320746960448201526132b960f11b6064820152608401610688565b6008805490819060006109d983611ebf565b91905055506109e833826113f1565b6040518060600160405280846002811115610a0557610a05611cd4565b81524260208083019190915260409182018590526000848152600b9091522081518154829060ff19166001836002811115610a4257610a42611cd4565b02179055506020820151600182015560408201516002820190610a659082611f2c565b5050336000818152600c602052604090819020805460ff19166001179055518392507f5716925f2a990bb51e5354134a606547c86dc787be1a2729eef575fd0c2bea1e90610ab4908790611e44565b60405180910390a3505050565b610adc83838360405180602001604052806000815250610eb3565b505050565b610ae96113c4565b80600d6000846002811115610b0057610b00611cd4565b6002811115610b1157610b11611cd4565b8152602001908152602001600020819055507f9b2aeac57e3bc4cc557619887fe04fb4a5d6a7198dc9d52d71c288115f3bf7c78282604051610b54929190611fec565b60405180910390a15050565b610b686113c4565b600a61065e8282611f2c565b60408051606080820183526000808352602083018190529282015290610b99836113a9565b6001600160a01b031603610be65760405162461bcd60e51b8152602060048201526014602482015273151bdad95b88191bd95cc81b9bdd08195e1a5cdd60621b6044820152606401610688565b6000828152600b6020526040908190208151606081019092528054829060ff166002811115610c1757610c17611cd4565b6002811115610c2857610c28611cd4565b815260200160018201548152602001600282018054610c4690611e85565b80601f0160208091040260200160405190810160405280929190818152602001828054610c7290611e85565b8015610cbf5780601f10610c9457610100808354040283529160200191610cbf565b820191906000526020600020905b815481529060010190602001808311610ca257829003601f168201915b5050505050815250509050919050565b600061059282611270565b600b6020526000908152604090208054600182015460028301805460ff909316939192610d0690611e85565b80601f0160208091040260200160405190810160405280929190818152602001828054610d3290611e85565b8015610d7f5780601f10610d5457610100808354040283529160200191610d7f565b820191906000526020600020905b815481529060010190602001808311610d6257829003601f168201915b5050505050905083565b60006001600160a01b038216610db5576040516322718ad960e21b815260006004820152602401610688565b506001600160a01b031660009081526003602052604090205490565b610dd96113c4565b610de3600061140b565b565b6060600180546105a790611e85565b61065e33838361145d565b600080610e0b83610d89565b905080600003610e1e5750600092915050565b60015b60085481101561078557836001600160a01b0316610e3e826113a9565b6001600160a01b031603610ea1576000818152600b602052604090205460ff166001816002811115610e7257610e72611cd4565b1480610e8f57506002816002811115610e8d57610e8d611cd4565b145b15610e9f57506001949350505050565b505b80610eab81611ebf565b915050610e21565b610ebe848484610662565b6106ec33858585856114f4565b60606000610ed8836113a9565b6001600160a01b031603610f255760405162461bcd60e51b8152602060048201526014602482015273151bdad95b88191bd95cc81b9bdd08195e1a5cdd60621b6044820152606401610688565b6000828152600b60205260408082208151606081019092528054829060ff166002811115610f5557610f55611cd4565b6002811115610f6657610f66611cd4565b815260200160018201548152602001600282018054610f8490611e85565b80601f0160208091040260200160405190810160405280929190818152602001828054610fb090611e85565b8015610ffd5780601f10610fd257610100808354040283529160200191610ffd565b820191906000526020600020905b815481529060010190602001808311610fe057829003601f168201915b505050505081525050905060606000600281111561101d5761101d611cd4565b8251600281111561103057611030611cd4565b036110575750604080518082019091526005815264426173696360d81b60208201526110b1565b60018251600281111561106c5761106c611cd4565b0361109557506040805180820190915260078152665072656d69756d60c81b60208201526110b1565b5060408051808201909152600381526205649560ec1b60208201525b6110ba8461161f565b8183604001516040516020016110d293929190612007565b60405160208183030381529060405292505050919050565b6000806110f683610d89565b9050600081116111535760405162461bcd60e51b815260206004820152602260248201527f5573657220646f6573206e6f74206f776e2061206d656d62657273686970204e604482015261119560f21b6064820152608401610688565b600060015b6008548110156111d757846001600160a01b0316611175826113a9565b6001600160a01b0316036111c5576000818152600b602052604090205460ff168260028111156111a7576111a7611cd4565b8160028111156111b9576111b9611cd4565b11156111c3578092505b505b806111cf81611ebf565b915050611158565b509392505050565b6001600160a01b03918216600090815260056020908152604080832093909416825291909152205460ff1690565b6112156113c4565b6001600160a01b03811661123f57604051631e4fbdf760e01b815260006004820152602401610688565b6112488161140b565b50565b60006001600160e01b03198216632483248360e11b14806105925750610592826116b2565b60008061127c836113a9565b90506001600160a01b03811661059257604051637e27328960e01b815260048101849052602401610688565b610adc8383836001611702565b6000806112c1846113a9565b90506001600160a01b038316156112dd576112dd818486611808565b6001600160a01b0381161561131b576112fa600085600080611702565b6001600160a01b038116600090815260036020526040902080546000190190555b6001600160a01b0385161561134a576001600160a01b0385166000908152600360205260409020805460010190555b60008481526002602052604080822080546001600160a01b0319166001600160a01b0389811691821790925591518793918516917fddf252ad1be2c89b69c2b068fc378daa952ba7f163c4a11628f55a4df523b3ef91a4949350505050565b6000908152600260205260409020546001600160a01b031690565b6007546001600160a01b03163314610de35760405163118cdaa760e01b8152336004820152602401610688565b61065e82826040518060200160405280600081525061186c565b600780546001600160a01b038381166001600160a01b0319831681179093556040519116919082907f8be0079c531659141344cd1fd0a4f28419497f9722a3daafe3b4186f6b6457e090600090a35050565b6001600160a01b03821661148f57604051630b61174360e31b81526001600160a01b0383166004820152602401610688565b6001600160a01b03838116600081815260056020908152604080832094871680845294825291829020805460ff191686151590811790915591519182527f17307eab39ab6107e8899845ad3d59bd9653f200f220920489ca2b5937696c319101610ab4565b6001600160a01b0383163b1561161857604051630a85bd0160e11b81526001600160a01b0384169063150b7a0290611536908890889087908790600401612101565b6020604051808303816000875af1925050508015611571575060408051601f3d908101601f1916820190925261156e9181019061213e565b60015b6115da573d80801561159f576040519150601f19603f3d011682016040523d82523d6000602084013e6115a4565b606091505b5080516000036115d257604051633250574960e11b81526001600160a01b0385166004820152602401610688565b805160208201fd5b6001600160e01b03198116630a85bd0160e11b1461161657604051633250574960e11b81526001600160a01b0385166004820152602401610688565b505b5050505050565b6060600061162c83611884565b600101905060008167ffffffffffffffff81111561164c5761164c611b89565b6040519080825280601f01601f191660200182016040528015611676576020820181803683370190505b5090508181016020015b600019016f181899199a1a9b1b9c1cb0b131b232b360811b600a86061a8153600a850494508461168057509392505050565b60006001600160e01b031982166380ac58cd60e01b14806116e357506001600160e01b03198216635b5e139f60e01b145b8061059257506301ffc9a760e01b6001600160e01b0319831614610592565b808061171657506001600160a01b03821615155b156117d857600061172684611270565b90506001600160a01b038316158015906117525750826001600160a01b0316816001600160a01b031614155b8015611765575061176381846111df565b155b1561178e5760405163a9fbf51f60e01b81526001600160a01b0384166004820152602401610688565b81156117d65783856001600160a01b0316826001600160a01b03167f8c5be1e5ebec7d5bd14f71427d1e84f3dd0314c0f7b2291e5b200ac8c7c3b92560405160405180910390a45b505b5050600090815260046020526040902080546001600160a01b0319166001600160a01b0392909216919091179055565b61181383838361195c565b610adc576001600160a01b03831661184157604051637e27328960e01b815260048101829052602401610688565b60405163177e802f60e01b81526001600160a01b038316600482015260248101829052604401610688565b61187683836119c2565b610adc3360008585856114f4565b60008072184f03e93ff9f4daa797ed6e38ed64bf6a1f0160401b83106118c35772184f03e93ff9f4daa797ed6e38ed64bf6a1f0160401b830492506040015b6d04ee2d6d415b85acef810000000083106118ef576d04ee2d6d415b85acef8100000000830492506020015b662386f26fc10000831061190d57662386f26fc10000830492506010015b6305f5e1008310611925576305f5e100830492506008015b612710831061193957612710830492506004015b6064831061194b576064830492506002015b600a83106105925760010192915050565b60006001600160a01b038316158015906119ba5750826001600160a01b0316846001600160a01b03161480611996575061199684846111df565b806119ba57506000828152600460205260409020546001600160a01b038481169116145b949350505050565b6001600160a01b0382166119ec57604051633250574960e11b815260006004820152602401610688565b60006119fa838360006112b5565b90506001600160a01b03811615610adc576040516339e3563760e11b815260006004820152602401610688565b6001600160e01b03198116811461124857600080fd5b600060208284031215611a4f57600080fd5b8135611a5a81611a27565b9392505050565b60005b83811015611a7c578181015183820152602001611a64565b50506000910152565b60008151808452611a9d816020860160208601611a61565b601f01601f19169290920160200192915050565b602081526000611a5a6020830184611a85565b600060208284031215611ad657600080fd5b5035919050565b80356001600160a01b0381168114611af457600080fd5b919050565b60008060408385031215611b0c57600080fd5b611b1583611add565b946020939093013593505050565b600080600060608486031215611b3857600080fd5b611b4184611add565b9250611b4f60208501611add565b9150604084013590509250925092565b600060208284031215611b7157600080fd5b611a5a82611add565b803560038110611af457600080fd5b634e487b7160e01b600052604160045260246000fd5b600067ffffffffffffffff80841115611bba57611bba611b89565b604051601f8501601f19908116603f01168101908282118183101715611be257611be2611b89565b81604052809350858152868686011115611bfb57600080fd5b858560208301376000602087830101525050509392505050565b600082601f830112611c2657600080fd5b611a5a83833560208501611b9f565b60008060408385031215611c4857600080fd5b611c5183611b7a565b9150602083013567ffffffffffffffff811115611c6d57600080fd5b611c7985828601611c15565b9150509250929050565b60008060408385031215611c9657600080fd5b611b1583611b7a565b600060208284031215611cb157600080fd5b813567ffffffffffffffff811115611cc857600080fd5b6119ba84828501611c15565b634e487b7160e01b600052602160045260246000fd5b60038110611d0857634e487b7160e01b600052602160045260246000fd5b9052565b60208152611d1e602082018351611cea565b60208201516040820152600060408301516060808401526119ba6080840182611a85565b611d4c8185611cea565b826020820152606060408201526000611d686060830184611a85565b95945050505050565b60008060408385031215611d8457600080fd5b611d8d83611add565b915060208301358015158114611da257600080fd5b809150509250929050565b600060208284031215611dbf57600080fd5b611a5a82611b7a565b60008060008060808587031215611dde57600080fd5b611de785611add565b9350611df560208601611add565b925060408501359150606085013567ffffffffffffffff811115611e1857600080fd5b8501601f81018713611e2957600080fd5b611e3887823560208401611b9f565b91505092959194509250565b602081016105928284611cea565b60008060408385031215611e6557600080fd5b611e6e83611add565b9150611e7c60208401611add565b90509250929050565b600181811c90821680611e9957607f821691505b602082108103611eb957634e487b7160e01b600052602260045260246000fd5b50919050565b600060018201611edf57634e487b7160e01b600052601160045260246000fd5b5060010190565b601f821115610adc57600081815260208120601f850160051c81016020861015611f0d5750805b601f850160051c820191505b8181101561161657828155600101611f19565b815167ffffffffffffffff811115611f4657611f46611b89565b611f5a81611f548454611e85565b84611ee6565b602080601f831160018114611f8f5760008415611f775750858301515b600019600386901b1c1916600185901b178555611616565b600085815260208120601f198616915b82811015611fbe57888601518255948401946001909101908401611f9f565b5085821015611fdc5787850151600019600388901b60f8161c191681555b5050505050600190811b01905550565b60408101611ffa8285611cea565b8260208301529392505050565b7f7b226e616d65223a2022446973636f7264204d656d626572736869702023000081526000845161203f81601e850160208901611a61565b7f222c20226465736372697074696f6e223a20224d656d62657273686970204e46601e918401918201527f5420666f7220446563656e7472616c697a656420446973636f7264222c000000603e82015268113a34b2b9111d101160b91b605b82015284516120b4816064840160208901611a61565b6f111610113ab9b2b93730b6b2911d101160811b6064929091019182015283516120e5816074840160208801611a61565b61227d60f01b6074929091019182015260760195945050505050565b6001600160a01b038581168252841660208201526040810183905260806060820181905260009061213490830184611a85565b9695505050505050565b60006020828403121561215057600080fd5b8151611a5a81611a2756fea26469706673582212201a36c1d90207f834a4c11ce11957ad5555ce6d39f0cc1b10062dc9e371eb99f764736f6c63430008140033",
  "linkReferences": {},
  "deployedLinkReferences": {}
}